S01700005369676E616C67656E657261746F722E73726563E8
S113000087C00000A4C00000A2C00000A0C000007F
S11300109EC000009CC000009AC0000098C0000070
S113002096C0000094C0000092C0000090C0000080
S11300308EC000008CC000008AC0000088C0000090
S113004086C0000084C0000082C0000080C00000A0
S113005054C300007CC000007AC0000078C00000D7
S113006076C0000074C0000072C0000070C00000C0
S11300706EC000006CC000006AC0000068C00000D0
S113008066C0000064C0000062C0000060C00000E0
S11300905EC000005CC000005AC0000058C00000F0
S11300A056C0000054C0000052C0000050C0000000
S11300B04EC000004CC000004AC0000048C0000010
S11300C046C0000044C0000042C0000040C0000020
S11300D03EC000003CC000003AC0000038C0000030
S11300E036C000000A04160422042E043A0446040E
S11300F0520405A84CCDB2D44EB93836A9020C50DE
S1130100B9918688083CA6AAAA2ABE000000803FAE
S113011011241FBECFEFD1E2DEBFCDBF00E00CBF84
S113012012E0A0E0B2E0E0E4FEE000E00BBF02C0B9
S113013007900D92A830B107D9F722E0A8E0B2E009
S113014001C01D92AF31B207E1F7C6D377C658CFCD
S113015080911A02813041F4109217021092160213
S11301601092150210921A0220911802309119026D
S11301708091160290911702820F931F80349C493C
S113018078F0109217021092160210921502E09164
S11301901B02F0911C02309719F01995882351F134
S11301A02091180230911902809116029091170241
S11301B0820F931F90931702809316028091150269
S11301C0882319F0813091F008958FE39CE990938E
S11301D089008093880080911602909117028F31D4
S11301E09E4440F081E080931502089510928900A6
S11301F010928800089580911A02813041F410927F
S11302001402109213021092120210921A022091F8
S11302101802309119028091130290911402820FF6
S1130220931F80349C4978F01092140210921302A8
S113023010921202E0911B02F0911C02309719F007
S11302401995882351F12091180230911902809157
S1130250130290911402820F931F909314028093BF
S1130260130280911202882319F0813081F00895DD
S113027010928900109288008091130290911402C8
S11302808F319E4450F081E08093120208958FE3F1
S11302909CE99093890080938800089580911A02C4
S11302A0813031F410920D0210920C0210921A0255
S11302B0209118023091190280910C0290910D0244
S11302C0820F931F80349C4968F010920D021092A3
S11302D00C02E0911B02F0911C02309719F0199561
S11302E0882391F0209118023091190280910C0218
S11302F090910D02820F931F90930D0280930C0234
S11303009093890080938800089580911A02813027
S113031031F410920B0210920A0210921A022091E8
S113032018023091190280910A0290910B02820FF7
S1130330931F80349C4968F010920B0210920A02B9
S1130340E0911B02F0911C02309719F01995882353
S1130350B9F0209118023091190280910A0290910B
S11303600B02820F931F90930B0280930A0220E4E6
S11303703CE9A901481B590B50938900409388001C
S1130380089580911A02813051F41092090210925A
S11303900802809302028093010210921A02809153
S11303A0180290911902880F991F20910802309128
S11303B00902820F931F80349C4938F48091010212
S11303C081110EC02115310559F41092010280915A
S11303D00202813011F48FEF01C081E080930202A8
S11303E0232B69F480910102811109C0E0911B0261
S11303F0F0911C02309719F019958823D9F02091B7
S1130400180230911902409102024203C001439F35
S1130410900D1124880F991F209108023091090230
S1130420820F931F9093090280930802909389008E
S11304308093880008954F925F926F927F92AF925B
S1130440BF92CF92DF92EF92FF920F931F93CF93BD
S1130450DF93CDB7DEB728970FB6F894DEBF0FBE93
S1130460CDBF6D837E838F83988729013A01C801AC
S1130470B70144D269837A838B839C8320E030E084
S1130480A901A1D2882301F1A30192016D817E818A
S11304908F81988533D22B013C01A60195016A8D89
S11304A07B8D8C8D9D8D2AD29B01AC01C301B20141
S11304B010D429813A814B815C818CD29B01AC019F
S11304C0C601B5011CD204C060E070E080E89FEB77
S11304D028960FB6F894DEBF0FBECDBFDF91CF9143
S11304E01F910F91FF90EF90DF90CF90BF90AF904E
S11304F07F906F905F904F900895AF92BF92CF928C
S1130500DF92EF92FF920F931F9380911A02813032
S113051031F4109211021092100210921A022091DA
S11305201802309119028091100290911102820FE9
S1130530931F80349C4970F01092110210921002A3
S1130540E0911B02F0911C02309721F01995882349
S113055009F44AC060911802709119028091100246
S113056090911102680F791F709311026093100229
S113057080E090E0C3D223E42F9324EB2F931F92C7
S11305801F92A12CB12C6501E12C1FE3F12E0CE18B
S113059017E4A60195014FDF0F900F900F900F9075
S11305A02BED3FE049E450E494D320E030E044E311
S11305B053E410D2F1D327E42F932CE12F932FE3AC
S11305C02F931F92E12CF12C00E81FE320E030E090
S11305D040E85FEB30DF0F900F900F900F9062D2E6
S11305E070938900609388001F910F91FF90EF90A2
S11305F0DF90CF90BF90AF900895AF92BF92CF920B
S1130600DF92EF92FF920F931F9380911A02813031
S113061031F410920F0210920E0210921A022091DD
S113062018023091190280910E0290910F02820FEC
S1130630931F80349C4970F010920F0210920E02A6
S1130640E0911B02F0911C02309721F01995882348
S113065009F44AC0609118027091190280910E0247
S113066090910F02680F791F70930F0260930E022E
S113067080E090E043D223E42F9324EB2F931F9246
S11306801F92A12CB12C6501E12C1FE3F12E0CE18A
S113069017E4A6019501CFDE0F900F900F900F90F5
S11306A02BED3FE049E450E414D320E030E044E390
S11306B053E490D18CD127E42F932CE12F932FE393
S11306C02F931F92E12CF12C00E81FE320E030E08F
S11306D040E85FEBB0DE0F900F900F900F90E2D1E7
S11306E070938900609388001F910F91FF90EF90A1
S11306F0DF90CF90BF90AF9008951F920F920FB6E6
S11307000F9211240BB60F922F933F934F935F9345
S11307106F937F938F939F93AF93BF93EF93FF93C5
S1130720E0911D02F0911E02309709F01995FF9196
S1130730EF91BF91AF919F918F917F916F915F9155
S11307404F913F912F910F900BBE0F900FBE0F90C2
S11307501F901895CF93DF93EC01CB01BA01CED152
S113076020E030E04AE754E435D19B01AC0160E07D
S113077070E088EC92E42ED195D1709319026093C5
S11307801802E0E8F0E080818E7F808380818260BF
S11307908083A1E8B0E08C9188608C938C91806117
S11307A08C938FE39CE9909387008093860084B1B7
S11307B0806284B98FE19EE49093890080938800DD
S11307C08C9181608C93808180688083EFE6F0E077
S11307D08081816080837894D0931E02C0931D022F
S11307E081E080931A02DF91CF91089585B18064EE
S11307F085B98091000291E0980F9093000290E0F7
S11308008730910508F05CC0FC018827EE58FF4F43
S11308108F4F0CC340910302509104026091050272
S11308207091060281EC91E095DF4CC04091030287
S113083050910402609105027091060285E891E0EE
S113084089DF40C040910302509104026091050287
S1130850709106028DE792E07DDF34C0409103027F
S11308605091040260910502709106028DEF92E0AE
S113087071DF28C040910302509104026091050287
S1130880709106028EE491E065DF1CC04091030282
S11308905091040260910502709106028BEF90E082
S11308A059DF10C040910302509104026091050287
S11308B07091060288EA90E04DDF1092000202C0B7
S11308C01092000285B18F7B85B980E008959093E2
S11308D01C0280931B02089540910302509104026C
S11308E060910502709106028DE792E033DF84B1D6
S11308F0806484B986EF93E0EADFFFCF5058BB27CA
S1130900AA270ED09BC164D130F069D120F031F414
S11309109F3F11F41EF459C10EF4E095E7FB4FC15B
S1130920E92FAED180F3BA176207730784079507DE
S113093018F071F49EF5C6C10EF4E0950B2EBA2F93
S1130940A02D0B01B90190010C01CA01A0011124D1
S1130950FF27591B99F0593F50F4503E68F11A167D
S1130960F040A22F232F342F4427585FF3CF46950E
S113097037952795A795F0405395C9F77EF41F1630
S1130980BA0B620B730B840BBAF09150A1F0FF0FFA
S1130990BB1F661F771F881FC2F70EC0BA0F621FE6
S11309A0731F841F48F4879577956795B795F795D6
S11309B09E3F08F0B3CF9395880F08F09927EE0F68
S11309C0979587950895D7D008F481E008950FD1BD
S11309D0E39545C10CD032C102D140F0F9D030F0DA
S11309E021F45F3F19F0EBC051116DC1EEC048D145
S11309F098F39923C9F35523B1F3951B550BBB27E2
S1130A00AA2762177307840738F09F5F5F4F220F8E
S1130A10331F441FAA1FA9F333D00E2E3AF0E0E887
S1130A2030D091505040E695001CCAF729D0FE2FD3
S1130A3027D0660F771F881FBB1F26173707480765
S1130A40AB07B0E809F0BB0B802DBF01FF2793581B
S1130A505F4F2AF09E3F510568F0B1C034C15F3F3B
S1130A60ECF3983EDCF3869577956795B795F79503
S1130A709F5FC9F7880F911D9695879597F90895FB
S1130A80E1E0660F771F881FBB1F62177307840797
S1130A90BA0720F0621B730B840BBA0BEE1F88F7A6
S1130AA0E0950895F5D088F09F5790F0B92F9927D5
S1130AB0B751A0F0D1F0660F771F881F991F1AF065
S1130AC0BA95C9F712C0B13081F0FCD0B1E00895F5
S1130AD0F9C0672F782F8827B85F39F0B93FCCF376
S1130AE0869577956795B395D9F73EF4909580955B
S1130AF0709561957F4F8F4F9F4F0895E89409C07B
S1130B0097FB3EF490958095709561957F4F8F4F3C
S1130B109F4F9923A9F0F92F96E9BB279395F69552
S1130B20879577956795B795F111F8CFFAF4BB0FD0
S1130B3011F460FF1BC06F5F7F4F8F4F9F4F16C034
S1130B40882311F096E911C0772321F09EE8872FBE
S1130B50762F05C0662371F096E8862F70E060E07A
S1130B602AF09A95660F771F881FDAF7880F9695F3
S1130B70879597F90895990F0008550FAA0BE0E897
S1130B80FEEF16161706E807F907C0F0121613064B
S1130B90E407F50798F0621B730B840B950B39F48B
S1130BA00A2661F0232B242B252B21F408950A26F1
S1130BB009F4A140A6958FEF811D811D089597F931
S1130BC09F6780E870E060E008959FEF80EC0895EF
S1130BD000240A9416161706180609060895002418
S1130BE00A9412161306140605060895EECF50D083
S1130BF0E8F3E894E0E0BB279F57F0F02AED3FE0EC
S1130C0049EC06C0EE0FBB0F661F771F881F28F044
S1130C10B23A62077307840728F0B25A620B730B67
S1130C20840BE3959A9572F7803830F49A95BB0F4C
S1130C30661F771F881FD2F79048B6C0092E039409
S1130C40000C11F4882352F0BB0F40F4BF2B11F4B5
S1130C5060FF04C06F5F7F4F8F4F9F4F0895EF93E6
S1130C60E0FF06C0A2EA2AED3FE049EC5FEB58DE64
S1130C70E5DF0F90039401FC9058E2EFF0E0A0C090
S1130C8057FD9058440F551F59F05F3F71F0479539
S1130C90880F97FB991F61F09F3F79F0879508951E
S1130CA0121613061406551FF2CF4695F1DF08C03D
S1130CB0161617061806991FF1CF8695710561055A
S1130CC008940895E894BB2766277727CB0197F902
S1130CD008950BD0B3CF7CDF28F081DF18F0952383
S1130CE009F06DCF72CF1124EECFCADFA0F3959F28
S1130CF0D1F3950F50E0551F629FF001729FBB27FF
S1130D00F00DB11D639FAA27F00DB11DAA1F649FAA
S1130D106627B00DA11D661F829F2227B00DA11D5D
S1130D20621F739FB00DA11D621F839FA00D611DE3
S1130D30221F749F3327A00D611D231F849F600D04
S1130D40211D822F762F6A2F11249F5750408AF03D
S1130D50E1F088234AF0EE0FFF1FBB1F661F771FC9
S1130D60881F91505040A9F79E3F510570F027CF3E
S1130D70AACF5F3FECF3983EDCF3869577956795B1
S1130D80B795F795E7959F5FC1F7FE2B880F911DE7
S1130D909695879597F908959F9329DF0F9007FCFF
S1130DA0EE5F5DCF9F3F31F0915020F487957795AA
S1130DB06795B795880F911D9695879597F908952E
S1130DC09F938F937F936F93FF93EF939B01AC015A
S1130DD080DFEF91FF9105D02F913F914F915F916B
S1130DE078CFDF93CF931F930F93FF92EF92DF920D
S1130DF07B018C01689405C0DA2EEF0176DFFE01D9
S1130E00E894A5912591359145915591AEF3EF0163
S1130E1087DDFE019701A801DA9479F7DF90EF905E
S1130E20FF900F911F91CF91DF910895EE0FFF1F57
S1130E30881F8BBF0790F691E02D1994F894FFCF8B
S10B0E40010101E803000000B8
S9030000FC
